:1008CD007661736F7961206E696B68696C0037743E
:0808DD0068206563203233003E
:06086600C2B5D2B67F010D
:10086C00E4FDFCEFFBC3ED9BEC94005015E4FBFAAC
:10087C000BBB00010ABA04F8BBFBF50DBD00010C63
:02088C0080E109
:01088E002247
:0A08F1008FA0C2B7120866C2B6223B
:0A08FB008FA0D2B7120866C2B62221
:10088F008B088A09890AAB08AA09A90A1208B46059
:10089F0013050AE50A7002050914F91208B4FF12CC
:0508AF0008FB80E222BD
:020837008F0B25
:1008390012088FE50BB40111E4FE7F1C1208F17F49
:10084900FA12086C0EBE10F222E50B700FFE7F182B
:0C0859001208F17FFA12086C0EBE10F2BB
:010865002270
:10080000E4F5A0F5B07F381208F17F061208F17FF9
:100810000C1208F17F8F1208F17BFF7A0879CD1254
:10082000088F7FCF1208F17BFF7A0879DB12088FDF
:070830007F1C1208F180CECD
:030000000208E50E
:0C08E500787FE4F6D8FD75810B02080056
:1008B400BB010689828A83E0225002E722BBFE0242
:0908C400E32289828A83E4932275
:00000001FF
