:10093500355448204543005641534F5941204E49AF
:050945004B48494C0085
:10090300E4FEEEC39F5011E4FDFC0DBD00010CBCE1
:0809130004F8BDF8F50E80EABE
:01091B0022B9
:10086D00EBC4540FC454F0FFE5A0540F4FF5A01284
:10087D00088DEB540FC454F0FFE5A0540F4FF5A0B5
:0A088D00C2B07F01120903D2B022AD
:0C095D00AB07C2B212086D7F0102090353
:1008BF00D2B0C2B27F3312095D7F3212095D7F2839
:1008CF0012095D7F0C12095D7F0612095D7F01120F
:0708DF00095D7F1902090306
:0C096900AB07D2B212086D7F0102090337
:10094A00AA07BA01057F8012095DBA02057FC012A3
:03095A00095D2212
:100897008B0F8A10891112094AAB0FAA10A91112DE
:1008A700091C60130511E5117002051014F91209EE
:0808B7001CFF12096980E22216
:08083C008F088B098A0A890B61
:10084400E4F50CE50CC39508501E7F0112095D7F89
:1008540032120903AB09AA0AA90B7F011208977F78
:0808640032120903050C80DBD0
:01086C002269
:020800008D0D5C
:10080200120897E50DB46C16E4F50E7F6412090325
:100812007F1812095D050EE50EC3941040EDE50D3B
:10082200B47216E4F50E7F641209037F1C12095D8F
:09083200050EE50EC3941040ED23
:01083B00229A
:1008E6001208BF7BFF7A0979357D727F02120800F4
:0D08F6007BFF7A09793C7F0112089780FE94
:030000000209757D
:0C097500787FE4F6D8FD7581110208E6D9
:10091C00BB010689828A83E0225002E722BBFE02D9
:09092C00E32289828A83E493220C
:00000001FF
