:100884002A57656C636F6D6520546F2043697263EA
:1008940075697420436974792A002D2D2D2D2D2D11
:1008A4002D2D2D2D2D2D2D2D2D2D2D2D2D2D2D2D74
:0708B4002D2D2D2D2D2D002F
:0608E800D2B67F0A7E007B
:1008EE00E4FDFCD3ED9FEC9E5015E4FBFA0BBB0030
:0F08FE00010AEB64654A70F50DBD00010C80E442
:01090D0022C7
:0A092F008FA0C2B71208E8C2B6227A
:0A0939008FA0D2B71208E8C2B62260
:0608BB008B088A09890A7E
:1008C10012090E8F0BE4F50CE50CD3950B5017AB09
:1008D10008AA09A90A850C82758300120800FF1273
:0608E1000939050C80E25C
:0108E70022EE
:10084600E4F5A0F5B07F3812092F7F0612092F7F35
:100856000C12092F7F8F12092F7BFF7A08798412D9
:1008660008BB7FCF12092F7BFF7A08799E1208BB3F
:0E0876007F1C12092F7FC87E001208EE80F250
:03000000020923CF
:0C092300787FE4F6D8FD75810C020846D0
:10080000BB010CE58229F582E5833AF583E02250AD
:1008100006E92582F8E622BBFE06E92582F8E222F7
:0D082000E58229F582E5833AF583E4932211
:10090E00E4FFFE12082D600C0FEF70010E09E97066
:05091E00F20A80EF2247
:10082D00BB010689828A83E0225002E722BBFE02C9
:09083D00E32289828A83E49322FC
:00000001FF
