:0509DB00120A347F0246
:1009E000E4FEEEC39F5011E4FDFC0DBD00010CBC04
:0809F00004F8BDF8F50E80EAE1
:0109F80022DC
:10096200EBC4540FC454F0FFE5A0540F4FF5A0128E
:100972000982EB540FC454F0FFE5A0540F4FF5A0C9
:0A098200C2B07F011209E0D2B022DA
:0C0A2800AB07C2B21209627F010209E0B4
:1009B400D2B0C2B27F33120A287F32120A287F28AB
:1009C400120A287F0C120A287F06120A287F0112B5
:0709D4000A287F190209E067
:0C0A3400AB07D2B21209627F010209E098
:100A1500AA07BA01057F80120A28BA02057FC0120B
:030A25000A28227A
:10098C008B158A168917120A15AB15AA16A91712F8
:10099C00088760130517E5177002051614F912087D
:0809AC0087FF120A3480E222E9
:080931008F108B118A1289134B
:10093900E4F514E514C39510501E7F01120A287FAF
:10094900321209E0AB11AA12A9137F0112098C7F97
:08095900321209E0051480DBF5
:010961002273
:0208F5008D185C
:1008F70012098CE518B46C16E4F5197F641209E047
:100907007F18120A280519E519C3941040EDE51858
:10091700B47216E4F5197F641209E07F1C120A28E5
:090927000519E519C3941040ED17
:0109300022A4
:1009F900D2B3C2B47F021209E0D2B420B5FDC2B3AA
:0B0A09007F021209E0AF907E00D2B522
:010A140022BF
:100800001209B41209F98E0E8F0FE59075F00A8463
:10081000AFF07508008F09E59075F00A84F58275D0
:1008200083007C007D0AFF7E001208A08C0A8D0BDD
:100830007C007D0AAF827E001208A08E838F8285A5
:10084000830C85820D7430250DF50DE4350CF50C07
:10085000AF0D1209DB7430250BF50BE4350AF50AF0
:10086000AF0B1209DB74302509F509E43508F508EA
:10087000AF091209DB7F0A1209E07FE81209E07F65
:0708800001120A280208031F
:03000000020A40B1
:0C0A4000787FE4F6D8FD758119020800EB
:10088700BB010689828A83E0225002E722BBFE026F
:09089700E32289828A83E49322A2
:1008A000BC000BBE0029EF8DF084FFADF022E4CC3C
:1008B000F875F008EF2FFFEE33FEEC33FCEE9DEC05
:1008C000984005FCEE9DFE0FD5F0E9E4CEFD22ED4B
:1008D000F8F5F0EE8420D21CFEADF075F008EF2F95
:1008E000FFED33FD4007985006D5F0F222C398FD86
:0508F0000FD5F0EA2223
:00000001FF
