:0B08D90009083F065B4F666D7D07FFBE
:10088C00E4F51374082513F8E6F59075110075124C
:10089C0001AE11AF12E4FCFD7B607AEAF9F8D312D9
:1008AC0008C3400A0512E51270E7051180E3051331
:0708BC00E513B409CE80C969
:03000000020800F3
:0C080000787FE4F6D8FD758113020847EC
:1008C300EB9FF5F0EA9E42F0E99D42F0EC6480C8AC
:0608D30064809845F0224C
:10080C0002088CE493A3F8E493A34003F68001F26E
:10081C0008DFF48029E493A3F85407240CC8C333ED
:10082C00C4540F4420C8834004F456800146F6DFBC
:10083C00E4800B01020408102040809008D9E47E6B
:10084C00019360BCA3FF543F30E509541FFEE493B1
:10085C00A360010ECF54C025E060A840B8E493A378
:10086C00FAE493A3F8E493A3C8C582C8CAC583CAA3
:10087C00F0A3C8C582C8CAC583CADFE9DEE780BE5B
:0108E4000013
:00000001FF
