:0B08B6000908000103070F1F3F7FFF30
:10088C007590FFE4F5A020900F05112090F87408E6
:10089C002511F8E6F5A080F32091EB15112091E6D7
:0A08AC0074082511F8E6F5A080F3AA
:03000000020800F3
:0C080000787FE4F6D8FD758111020847EE
:10080C0002088CE493A3F8E493A34003F68001F26E
:10081C0008DFF48029E493A3F85407240CC8C333ED
:10082C00C4540F4420C8834004F456800146F6DFBC
:10083C00E4800B01020408102040809008B6E47E8E
:10084C00019360BCA3FF543F30E509541FFEE493B1
:10085C00A360010ECF54C025E060A840B8E493A378
:10086C00FAE493A3F8E493A3C8C582C8CAC583CAA3
:10087C00F0A3C8C582C8CAC583CADFE9DEE780BE5B
:0108C1000036
:00000001FF
