:10088C0053554E004D4F4E005455450057454400AE
:10089C0054485500465249005341540057454C4367
:1008AC004F4D4520544F004D592050524F4A45430F
:1008BC00540052544320494E544552464143494EEC
:1008CC0047002020205553494E47204932432020D1
:0F08DC00200054494D453A20004441593A20002C
:100B7A001511FF088CFF0890FF0894FF0898FF08DA
:100B8A009CFF08A0FF08A4070800471102230713C7
:030B9A00010F0048
:080AA200C291D2927F017E0097
:100AAA00E4FDFCC3ED9FEE6480F8EC648098501579
:100ABA00E4FBFA0BBB00010ABA04F8BBFBF50DBD57
:050ACA0000010C80DEBC
:010ACF002204
:0909CD007F647E00120AAA7F017A
:1009D600A907E954F0FFE590540F4FF590C2901225
:1009E6000AA2C292E9C454F0FFE590540F4FF59065
:0E09F600C290C291D2927F01120AAAC292222E
:100AD000A907E954F0FFE590540F4FF590D290121A
:100AE0000AA2C292E9C454F0FFE590540F4FF5906A
:0E0AF000D290C291D2927F01120AAAC2922223
:100C46007F331209D67F321209D67F281209D67F42
:0E0C56000C1209D67F061209D67F010209D6BC
:04098D007BFF7F016C
:080991008F328B338A34893563
:10099900E532B401047F808007E532B402057FC0E7
:1009A9001209D6E4F536AB33AA34A935AF36EF339D
:1009B90095E08F82F583120960FF6007120AD0055E
:0309C9003680E392
:0109CC002208
:050BE4007FD0120A6E33
:020BE9008F3249
:100BEB00E5327804A2E713D8FB540F4430FF120A06
:0B0BFB00D0E532540F4430FF020AD056
:100B5400E4FDFCC3ED9FEE6480F8EC6480985015CE
:100B6400E4FBFA0BBB00010ABA04F8BBFBF50DBDAC
:050B740000010C80DE11
:010B79002259
:0D0C7F0030A40930A506C2A500C2A40022C1
:090C8C00C2A5D2A400D2A50022E9
:020A0400AD073C
:100A06007F807E00EDFBEB5F6004D2A58002C2A56D
:100A1600D2A400C2A400EEC313FEEF13FFD39400CA
:100A2600EE940050DFD2A5D2A400A2A5E433F510BF
:030A3600C2A40057
:010A3900229A
:100AFE00E4FE7D80D2A40030A503ED4206C2A40020
:100B0E00EDC313FDD3940050EBBF0104D2A58002B8
:0C0B1E00C2A5D2A400C2A400D2A5AF065C
:010B2A0022A8
:040A3A007D027FD0EA
:100A3E00AC07AA03A905120C7FAF04120A04E51035
:100A4E00B40103120C8CE510640160EAAF01120AC6
:100A5E0004AF02120A04120C8C7F047E00020B54A7
:040A6E00AC07AA0522
:100A7200120C7FAF04120A04E510B40103120C8CAD
:100A8200E510640160EAAF02120A04120C8C120C27
:0F0A92007FEC04FF120A047F01120AFE120C8C83
:010AA1002232
:100C64008D378B38AB07120A3AAB377D017FD01230
:0B0C74000A3EAB38E4FD7FD0020A3ED0
:100B2B00120947FB120A3AAB2CAA2DA92E12094720
:100B3B00FB7D017FD0120A3EAB2FAA30A9311209DF
:090B4B0047FBE4FD7FD0020A3EE5
:100C27008D328B33AB077D047FD0120A3EAB327D0A
:0F0C3700057FD0120A3EAB337D067FD0020A3E06
:090C9500AB077D037FD0020A3E8B
:100B9E007F861209D67D02120BE47F3A120AD07DAF
:100BAE0001120BE47F3A120AD0E4FD7FD0120A6ED6
:030BBE00020BE93E
:100BC1007FC41209D67D04120BE47F2F120AD07D57
:100BD10005120BE47F2F120AD07D067FD0120A6E18
:030BE100020BE91B
:100C06007FCD1209D67D037FD0120A6EEF75F003F1
:100C1600A42411F8860308E6FA08E6F9E4FF0209B7
:010C2600913C
:1008EB007B137D107F28120C277F02120C95120CA4
:1008FB00467A0879A812098D7BFF7A0879B37F02B3
:10090B001209911209CD7A0879BE12098D7BFF7AF3
:10091B000879CE7F021209911209CD7BFF7A0879F3
:10092B00DE7F011209917BFF7A0879E57F021209BC
:0C093B0091120B9E120BC1120C0680F5ED
:03000000020800F3
:0C080000787FE4F6D8FD758138020847C7
:10094700BB010689828A83E0225002E722BBFE02AE
:09095700E32289828A83E49322E1
:10096000BB010CE58229F582E5833AF583E022504C
:1009700006E92582F8E622BBFE06E92582F8E22296
:0D098000E58229F582E5833AF583E49322B0
:10080C000208EBE493A3F8E493A34003F68001F20F
:10081C0008DFF48029E493A3F85407240CC8C333ED
:10082C00C4540F4420C8834004F456800146F6DFBC
:10083C00E4800B0102040810204080900B7AE47EC7
:10084C00019360BCA3FF543F30E509541FFEE493B1
:10085C00A360010ECF54C025E060A840B8E493A378
:10086C00FAE493A3F8E493A3C8C582C8CAC583CAA3
:10087C00F0A3C8C582C8CAC583CADFE9DEE780BE5B
:010B9D000057
:00000001FF
