:060B2B006572726F72009A
:0B0B1F000408F7FBFDFE030F3132332A
:100AC200E4FEEEC39F5011E4FDFC0DBD00010CBC21
:080AD20004F8BDF8F50E80EAFE
:010ADA0022F9
:100A4900EBC4540FC454F0FFE5A0540F4FF5A012A6
:100A59000A69EB540FC454F0FFE5A0540F4FF5A0F9
:0A0A6900C2B07F01120AC2D2B0220F
:0C0B0700AB07C2B2120A497F01020AC209
:100A9B00D2B0C2B27F33120B077F32120B077F2803
:100AAB00120B077F0C120B077F06120B077F01122D
:070ABB000B077F19020AC2BC
:0C0B1300AB07D2B2120A497F01020AC2ED
:100AF400AA07BA01057F80120B07BA02057FC0124C
:030B04000B0722BA
:100A73008B198A1A891B120AF4AB19AA1AA91B1219
:100A83000ADB6013051BE51B7002051A14F9120A31
:080A9300DBFF120B1380E222CD
:080A18008F148B158A16891753
:100A2000E4F518E518C39514501E7F01120B077FDB
:100A300032120AC2AB15AA16A9177F01120A737FD8
:080A400032120AC2051880DB26
:010A4800228B
:0209DC008D1C70
:1009DE00120A73E51CB46C16E4F51D7F64120AC28C
:1009EE007F18120B07051DE51DC3941040EDE51C85
:1009FE00B47216E4F51D7F64120AC27F1C120B0737
:090A0E00051DE51DC3941040ED27
:010A170022BC
:10080000120A9BE4F513E4F512E512C394044003C5
:1008100002094174082512F8E6F590E590B4770BCB
:10082000E590647760FA7F30020910E590B47B0BA5
:10083000E590647B60FA7F31020910E590B47D0B8E
:10084000E590647D60FA7F32020910E590B47E0B7A
:10085000E590647E60FA7F33020910E590B4B70B2F
:10086000E59064B760FA7F34020910E590B4BB0BE1
:10087000E59064BB60FA7F35020910E590B4BD0BCA
:10088000E59064BD60FA7F36020910E590B4BE0AB7
:10089000E59064BE60FA7F378076E590B4D70AE5CC
:1008A0009064D760FA7F388067E590B4DB0AE59002
:1008B00064DB60FA7F398058E590B4DD0AE5906426
:1008C000DD60FA7F618049E590B4DE0AE59064DE80
:1008D00060FA7F62803AE590B4E70AE59064E760E9
:1008E000FA7F63802BE590B4EB0AE59064EB60FA45
:1008F0007F64801CE590B4ED0AE59064ED60FA7FBA
:1009000065800DE590B4EE19E59064EE60FA7F66BF
:10091000120B13740F2513F8E6FF740C2513F8A6B9
:1009200007740C2513F8E6B401F7B402F4B4030419
:10093000D2B580ED7BFF7A0B792B7F02120A738090
:10094000E00513E513C394035003020806020803ED
:03000000020950A2
:0C095000787FE4F6D8FD75811D02099740
:100ADB00BB010689828A83E0225002E722BBFE0219
:090AEB00E32289828A83E493224C
:10095C00020800E493A3F8E493A34003F68001F2A9
:10096C0008DFF48029E493A3F85407240CC8C3339C
:10097C00C4540F4420C8834004F456800146F6DF6B
:10098C00E4800B0102040810204080900B1FE47ED1
:10099C00019360BCA3FF543F30E509541FFEE49360
:1009AC00A360010ECF54C025E060A840B8E493A327
:1009BC00FAE493A3F8E493A3C8C582C8CAC583CA52
:1009CC00F0A3C8C582C8CAC583CADFE9DEE780BE0A
:010B2A0000CA
:00000001FF
