:060AEE000408F7FBFDFE09
:100A9100E4FEEEC39F5011E4FDFC0DBD00010CBC52
:080AA10004F8BDF8F50E80EA2F
:010AA900222A
:100A1800EBC4540FC454F0FFE5A0540F4FF5A012D7
:100A28000A38EB540FC454F0FFE5A0540F4FF5A05B
:0A0A3800C2B07F01120A91D2B02271
:0C0AD600AB07C2B2120A187F01020A919D
:100A6A00D2B0C2B27F33120AD67F32120AD67F2898
:100A7A00120AD67F0C120AD67F06120AD67F0112F4
:070A8A000AD67F19020A9150
:0C0AE200AB07D2B2120A187F01020A9181
:100AC300AA07BA01057F80120AD6BA02057FC012AF
:030AD3000AD6221E
:100A42008B158A168917120AC3AB15AA16A9171293
:100A52000AAA60130517E5177002051614F9120A9F
:080A6200AAFF120AE280E22261
:0809E7008F108B118A12891395
:1009EF00E4F514E514C39510501E7F01120AD67F4B
:1009FF0032120A91AB11AA12A9137F01120A427F78
:080A0F0032120A91051480DB8C
:010A170022BC
:0209AB008D18A5
:1009AD00120A42E518B46C16E4F5197F64120A9127
:1009BD007F18120AD60519E519C3941040EDE518F4
:1009CD00B47216E4F5197F64120A917F1C120AD6CF
:0909DD000519E519C3941040ED61
:0109E60022EE
:10080000120A6AE4F50EF50F7408250FF8E6F59064
:10081000E590B4770BE590647760FA7F30020905C4
:10082000E590B47B0BE590647B60FA7F31020905AB
:10083000E590B47D0BE590647D60FA7F3202090596
:10084000E590B47E0BE590647E60FA7F3302090583
:10085000E590B4B70BE59064B760FA7F3402090500
:10086000E590B4BB0BE59064BB60FA7F35020905E7
:10087000E590B4BD0BE59064BD60FA7F36020905D2
:10088000E590B4BE0AE59064BE60FA7F378076E5F5
:1008900090B4D70AE59064D760FA7F388067E59016
:1008A000B4DB0AE590640D60FA7F398058E590B4B6
:1008B000DD0AE59064DD60FA7F618049E590B4DE91
:1008C0000AE59064DE60FA7F62803AE590B4E70A58
:1008D000E59064E760FA7F63802BE590B4EB0AE56E
:1008E0009064EB60FA7F64801CE590B4ED0AE590BB
:1008F00064ED60FA7F65800DE590B4EE0BE59064E1
:10090000EE60FA7F66120AE2050FE50F7002050E2F
:0F091000C39404E50E9400500302080802080384
:0300000002091FD3
:0C091F00787FE4F6D8FD758119020966A6
:100AAA00BB010689828A83E0225002E722BBFE024A
:090ABA00E32289828A83E493227D
:10092B00020800E493A3F8E493A34003F68001F2DA
:10093B0008DFF48029E493A3F85407240CC8C333CD
:10094B00C4540F4420C8834004F456800146F6DF9C
:10095B00E4800B0102040810204080900AEEE47E34
:10096B00019360BCA3FF543F30E509541FFEE49391
:10097B00A360010ECF54C025E060A840B8E493A358
:10098B00FAE493A3F8E493A3C8C582C8CAC583CA83
:10099B00F0A3C8C582C8CAC583CADFE9DEE780BE3B
:010AF4000001
:00000001FF
