:0C08BC000408065B4F66040C01020408EF
:10088C00E4F51274082512F8E6F590740C2512F8AC
:10089C00E6F5A07510007511010511E51170020542
:1008AC001064C8451070F20512E512B404D580D05E
:03000000020800F3
:0C080000787FE4F6D8FD758112020847ED
:10080C0002088CE493A3F8E493A34003F68001F26E
:10081C0008DFF48029E493A3F85407240CC8C333ED
:10082C00C4540F4420C8834004F456800146F6DFBC
:10083C00E4800B01020408102040809008BCE47E88
:10084C00019360BCA3FF543F30E509541FFEE493B1
:10085C00A360010ECF54C025E060A840B8E493A378
:10086C00FAE493A3F8E493A3C8C582C8CAC583CAA3
:10087C00F0A3C8C582C8CAC583CADFE9DEE780BE5B
:0108C800002F
:00000001FF
