:10088C001008008000400020001000080004000246
:10089C0000011018000100020004000800100020E4
:1008AC00004000801028008000C000E000FE00F82E
:1008BC0000FC00FE00FF103800FE00FC00F800FEFB
:0808CC0000E000C00080000004
:1008D5001209AD1208FD1209211208FD120959125B
:1008E50008FD12093D1208FD1209751208FD1209CD
:0808F500917FC87E0002090199
:0408FD007FC87E0032
:10090100E4FDFCC3ED9FEC9E5015E4FBFA0BBB002C
:0F091100010ABA04F8BBFBF50DBD00010C80E430
:0109200022B4
:1009AD009000007F147E00120901858290A3E4B5AA
:0709BD0082F1E583B401ECB7
:0109C4002210
:100921009000FF7F147E00120901858290E58215F7
:0B0931008270021583E582458370E8A8
:01093C002298
:10093D009000001208FDAF82EF25E02408F808E6CC
:0B094D00F590A3E5826409458370E883
:01095800227C
:100959009000001208FDAF82EF25E02418F808E6A0
:0B096900F590A3E5826409458370E867
:010974002260
:100975009000001208FDAF82EF25E02428F808E674
:0B098500F590A3E5826409458370E84B
:010990002244
:100991009000001208FDAF82EF25E02438F808E648
:0B09A100F590A3E5826409458370E82F
:0109AC002228
:03000000020800F3
:0C080000787FE4F6D8FD758147020847B8
:10080C000208D5E493A3F8E493A34003F68001F225
:10081C0008DFF48029E493A3F85407240CC8C333ED
:10082C00C4540F4420C8834004F456800146F6DFBC
:10083C00E4800B010204081020408090088CE47EB8
:10084C00019360BCA3FF543F30E509541FFEE493B1
:10085C00A360010ECF54C025E060A840B8E493A378
:10086C00FAE493A3F8E493A3C8C582C8CAC583CAA3
:10087C00F0A3C8C582C8CAC583CADFE9DEE780BE5B
:0108D4000023
:00000001FF
