:10088C001008008000400020001000080004000246
:10089C0000011018000100020004000800100020E4
:1008AC00004000801028008000C000E000FE00F82E
:1008BC0000FC00FE00FF103800FE00FC00F800FEFB
:0808CC0000E000C00080000004
:1008D50030A0FD30A00812093912091280F530A0A8
:1008E500FD30A00812095812091280F530A0FD301C
:1008F500A00812096F12091280F530A0FD30A0D0B2
:0809050012098612091280F5A7
:09090D00F808E6F5907F147E0065
:10091600E4FDFCC3ED9FEC9E5018E4FBFA0BBB0014
:10092600010ABA04F8BBFBF530A0070DBD00010CA7
:0209360080E15E
:01093800229C
:10093900E4FFFEEF25E02408F808E6F5900FBF0074
:0F094900010EEF64094E70EB7F147E0002091659
:10095800900000AF82EF25E0241812090DA3E5826C
:060968006409458370EDF7
:01096E002266
:10096F00900000AF82EF25E0242812090DA3E58245
:06097F006409458370EDE0
:01098500224F
:10098600900000AF82EF25E0243812090DA3E5821E
:060996006409458370EDC9
:01099C002238
:03000000020800F3
:0C080000787FE4F6D8FD758147020847B8
:10080C000208D5E493A3F8E493A34003F68001F225
:10081C0008DFF48029E493A3F85407240CC8C333ED
:10082C00C4540F4420C8834004F456800146F6DFBC
:10083C00E4800B010204081020408090088CE47EB8
:10084C00019360BCA3FF543F30E509541FFEE493B1
:10085C00A360010ECF54C025E060A840B8E493A378
:10086C00FAE493A3F8E493A3C8C582C8CAC583CAA3
:10087C00F0A3C8C582C8CAC583CADFE9DEE780BE5B
:0108D4000023
:00000001FF
