:05091C00D286C2872213
:05092100C286D287220E
:05092600C286C2872219
:1008C700900000AF82AE83E4FCFD7B607AEAF9F822
:1008D700D31208FA4003A380EA900000AF82AE83E8
:1008E700E4FCFD7B607AEAF9F8D31208FA4003A327
:0208F70080EA95
:0108F90022DC
:10080000E4F58075A0FFD28020A036EF7009C28188
:10081000D280C282120926BF0111C282C281D28057
:1008200030A30512092180F8120926BF0211D280D7
:10083000C282C28130A30512092180F8120926E480
:10084000FF20A144EF7011C280D281C28230A40582
:1008500012091C80F8120926BF0115C282D281C27A
:1008600080C2A430A40512091C80F8C2A412092673
:10087000BF0213C282D281C280C2A430A405120971
:100880002180F81209267F0130A203020808EF70C8
:1008900011C280D282C28130A50512091C80F812D3
:1008A0000926BF0111C281D282C28030A50512097A
:1008B0001C80F8120926BF0209D282C280C28112AE
:0708C00009267F020208086F
:03000000020910E2
:0C091000787FE4F6D8FD7581070208002E
:1008FA00EB9FF5F0EA9E42F0E99D42F0EC6480C875
:06090A0064809845F02214
:00000001FF
