:100A0A000A133F065B4F666D7D07FF6F040FF7FB06
:020A1A00FDFEDF
:040A1D00751D012220
:040A2100751D02221B
:1009DA00851480E51DB40112E50B250CF5082413D6
:1009EA00F8E6F580E4F509F51D22E51DB40210C309
:1009FA00E50B950CF5082413F8E6F580E4F51E22BC
:10080000E4F50975B001E4F50A740F250AF8E6F578
:1008100090E590B47715E590647760FA851380745D
:100820000B2509F8E4F6050902093FE590B47B15AC
:10083000E590647B60FA851480740B2509F87601D5
:10084000050902093FE590B47D15E590647D60FAE5
:10085000851580740B2509F87602050902093FE524
:1008600090B47E15E590647E60FA851680740B2541
:1008700009F87603050902093FE590B4B715E5903C
:1008800064B760FA851780740B2509F876040509AA
:1008900002093FE590B4BB15E59064BB60FA85188A
:1008A00080740B2509F87605050902093FE590B427
:1008B000BD14E59064BD60FA851980740B2509F8B4
:1008C000760605098079E590B4BE14E59064BE60B3
:1008D000FA851A80740B2509F8760705098060E50A
:1008E00090B4D714E59064D760FA851B80740B250B
:1008F00009F8760805098047E590B4DB14E59064B3
:10090000DB60FA851C80740B2509F87609050980DF
:100910002EE590B4DD0BE59064DD60FA120A1D80CF
:100920001EE590B4DE0BE59064DE60FA120A2180C9
:100930000EE590B4E709E59064E760FA1209DA057C
:0E0940000AE50AC394045003020809020803E2
:0300000002094EA4
:0C094E00787FE4F6D8FD75811E02099543
:10095A00020800E493A3F8E493A34003F68001F2AB
:10096A0008DFF48029E493A3F85407240CC8C3339E
:10097A00C4540F4420C8834004F456800146F6DF6D
:10098A00E4800B0102040810204080900A0AE47EE9
:10099A00019360BCA3FF543F30E509541FFEE49362
:1009AA00A360010ECF54C025E060A840B8E493A329
:1009BA00FAE493A3F8E493A3C8C582C8CAC583CA54
:1009CA00F0A3C8C582C8CAC583CADFE9DEE780BE0C
:010A1C0000D9
:00000001FF
