:050C1C00FEFDFBF7EFF7
:0C0BF400758920758DFD759850D28E22F9
:080C0C008F993099FDC2992275
:070C14003098FDAF99C29872
:010C1B0022B6
:100BCF008B1F8A208921AB1FAA20A921120B7B60C2
:100BDF00130521E5217002052014F9120B7BFF127A
:050BEF000C0C80E22265
:020800008F1453
:1008020078157C007D007BFF7A0C791C7E007F05C9
:10081200120B55E51424E07003020A3924A6700372
:10082200020A282439B419004003020A4490083D00
:1008320075F003A4C58325F0C583730208880208F6
:100842009A0208A80208B30208C50208D70208E9FA
:100852000208FB02090C02091A02092902093B02D9
:10086200094D02095E02096A02097B02098D020929
:100872009F0209B10209C30209D40209E50209F67D
:10088200020A06020A17751A10751B76751C767510
:100892001D76751E01020A44E4F51A751B36751C95
:1008A20036751D368017E4F51A751B3E751C3E80A1
:1008B20062E4F51A751B3E751C3E751D3E751E41A0
:1008C200020A44E4F51A751B36751C36751D367519
:1008D2001E36020A44E4F51A751B76751C76751DE0
:1008E20076751E76020A44751A40751B5A751C5A93
:1008F200751D42751E7B020A44E4F51A751B777555
:100902001C77751D77F51E020A44751A3E751B3E4B
:10091200E4F51C751D3E801B751A3E751B3EE4F501
:100922001C751D7E020A23E4F51A751B77751C6B74
:10093200751D5D751E3E020A44E4F51A751B3F756E
:100942001C3F751D3F751E3F020A44E4F51A751BD4
:100952007D751C7B751D7DF51E020A44E4F51A7532
:100962001B7D751CE30209FFE4F51A751B3E751C1D
:100972003E751D3EF51E020A44751A80751BF675FA
:100982001CF6751DF6751EF9020A44751AF1751BDF
:10099200EE751CE6751D86751EB1020A44E4F51A51
:1009A200751BEE751CCE751DBE751E39020A447587
:1009B2001A30751B36751C36751D36751E06020AF1
:1009C20044751AFE751BFEE4F51C751DFE751EFEB0
:1009D2008070751AC0751B3F751C3F751D3F751ED3
:1009E200C0805F751A60751B5F751C3F751D5F7552
:1009F2001E60804EE4F51A751B5F751C6F751D5FD6
:100A0200F51E803E751A1C751B6B751C77751D6B68
:100A1200751E1C802D751A7E751B7D751C03751D38
:100A22007D751E7E801C751A1E751B2E751C3675F3
:100A32001D3A751E3C800BE4F51AF51BF51CF51DDD
:100A4200F51EE4FFFEE4FDFC741A2DF8E6F5807451
:100A5200152DF8E6F590E4FBFA0BBB00010AEB64F6
:100A6200054A70F57580FFE4F5900DBD00010CEDAF
:100A720064054C70D30FBF00010EEF64054E70C5C4
:020A8200051459
:010A8400224F
:100B94007580FFE4F590F5A0120BF4120C147408A0
:100BA4002512F8A6070512E512C3940940EDE4F5F1
:100BB400128512A074082512F8E6F513FF12080036
:0B0BC4000512E512C3940540E880E331
:03000000020C00EF
:0C0C0000787FE4F6D8FD758121020B948A
:100A8500E709F608DFFA8046E709F208DFFA803E53
:100A950088828C83E709F0A3DFFA8032E309F60840
:100AA500DFFA8078E309F208DFFA807088828C83A8
:100AB500E309F0A3DFFA806489828A83E0A3F6085C
:100AC500DFFA805889828A83E0A3F208DFFA804C36
:100AD50080D280FA80C680D4806980F2803380100D
:100AE50080A680EA809A80A880DA80E280CA803376
:100AF50089828A83ECFAE493A3C8C582C8CCC583EE
:100B0500CCF0A3C8C582C8CCC583CCDFE9DEE780BD
:100B15000D89828A83E493A3F608DFF9ECFAA9F03C
:100B2500EDFB2289828A83ECFAE0A3C8C582C8CC92
:100B3500C583CCF0A3C8C582C8CCC583CCDFEADEAB
:100B4500E880DB89828A83E493A3F208DFF980CC0D
:100B550088F0EF60010E4E60C388F0ED2402B40406
:100B65000050B9F582EB2402B4040050AF232345AD
:060B75008223900AD573F3
:100B7B00BB010689828A83E0225002E722BBFE0278
:090B8B00E32289828A83E49322AB
:00000001FF
