:0C098500758920758DFD759850D28E226A
:07099D003098FDAF99C298EC
:0109A4002230
:030962007FFAFE1B
:10096500E4FDFCC3ED9FEC9E5015E4FBFA0BBB00C8
:0F097500010ABA04F8BBFBF50DBD00010C80E4CC
:010984002250
:10080000C280C281C282C283C284C285C286C287BC
:1008100012098512099DEF3395E08F82F583E582F9
:10082000645545837006D280D28680E7E582647580
:1008300045837006C280C28680D9E58264444583C0
:100840007006D281D28780CBE582646445837006CE
:10085000C281C28780BDE582645245837006D28121
:10086000D28680AFE582647245837006C281C286FB
:1008700080A1E582644C45837006D280D287809344
:10088000E582646C45837006C280C2878085E582FC
:10089000645745837005D282020813E58264774568
:1008A000837005C282020813E5826458458370058F
:1008B000D283020813E582647845837005C28302FF
:1008C0000813E582645945837005D284020813E554
:1008D00082647945837005C284020813E582645AF4
:1008E00045837005D285020813E582647A458370DA
:1008F00005C285020813E582646E45837013C280C9
:10090000C281C282C283C284C285C286C2870208F3
:1009100013E58264304583700AD280120962D28660
:10092000020813E58264344583700AD28612096294
:10093000D280020813E58264324583700DD2817F34
:10094000FAFE120965D287020813E58264344583F2
:100950006003020813D2877FFAFE120965D2810272
:0209600008137A
:0300000002099161
:0C099100787FE4F6D8FD758107020800AD
:00000001FF
