:03000000020036C5
:10000B00EB1160D2901154C290EA1160D29111544D
:10001B00C291E91160D2921154C292E81160D2934D
:10002B001154C293758A66758CFC32780379027A07
:10003B00017B00758000759000758901758A667566
:10004B008CFC75A882D28C80FE758A66758CFC3010
:10005B008DFDC28D22B4000475804022B40104755D
:10006B00807922B4020475802422B4030475803095
:10007B0022B4040475801922B4050475801222B4CD
:10008B00060475800222B4070475807822B4080434
:0B009B0075800022B40903758010225C
:00000001FF
