:1008E9005641534F5941204E494B48494C003554C4
:0508F90048204543000A
:10084400C2B15307F0EFC4540FFF53070F8F90D278
:05085400B07F327E00C0
:10085900E4FDFCC3ED9FEE6480F8EC6480985015CC
:10086900E4FBFA0BBB00010ABA04F8BBFBF50DBDAA
:0508790000010C80DE0F
:01087E002257
:1008BD00A907C2B2120844C2B053010F8990D2B039
:0508CD00120859C2B041
:0108D2002203
:1008D300A907D2B2120844C2B053010F8990D2B013
:0508E300120859C2B02B
:0108E80022ED
:10087F008B088A09890AAB08AA09A90A1208A46079
:10088F0013050AE50A7002050914F91208A4FF12EC
:05089F0008D380E222F5
:100800007F281208BD1208557F381208BD120855FE
:100810007F0E1208BD1208557F011208BD1208553F
:100820007F801208BD7BFF7A0879E912087F1208E1
:10083000557FC01208BD7BFF7A0879F712087F1236
:04084000085580FED9
:030000000208FEF5
:0C08FE00787FE4F6D8FD75810A0208003E
:1008A400BB010689828A83E0225002E722BBFE0252
:0908B400E32289828A83E4932285
:00000001FF
