:06084800C2B17F327E0008
:10084E00E4FDFCC3ED9FEE6480F8EC6480985015D7
:10085E00E4FBFA0BBB00010ABA04F8BBFBF50DBDB5
:05086E0000010C80DE1A
:010873002262
:0C08B2008F90D2B0C2B2120848C2B0222F
:0C08BE008F90D2B0D2B2120848C2B02213
:100874008B088A09890AAB08AA09A90A120899608F
:1008840013050AE50A7002050914F9120899FF1202
:0508940008BE80E22215
:100800007F381208B27F0E1208B27F011208B27F41
:10081000641208B2E4FF1208BE7F1F1208BE7F0FE9
:100820001208BE7F151208BE7F061208BE7F061290
:1008300008BE7F061208BEE4FF1208BE7F801208C1
:08084000B2E4FF1208BE80FEC5
:030000000208CA29
:0C08CA00787FE4F6D8FD75810A02080072
:10089900BB010689828A83E0225002E722BBFE025D
:0908A900E32289828A83E4932290
:00000001FF
