:0C0953000A083F065B4F666D7D07FF6FD2
:10080000E4F515E4F516E4F517E4F51875B0FF7492
:10081000082518F8E6F590C2B075130075140105A7
:1008200014E51470020513B470F5E513B417F075F0
:10083000B0FF74082517F8E6F590C2B1751300757E
:1008400014010514E51470020513B42CF5E513B476
:1008500001F075B0FF74082516F8E6F590C2B27580
:1008600013007514010514E51470020513B42CF57A
:10087000E513B401F075B0FF74082515F8E6F5909E
:10088000C2B37513007514010514E5147002051345
:10089000B42CF5E513B401F00518E518640A6003FB
:1008A00002080C0517E517640A600302080905161B
:1008B000E516640A60030208060515E515640A607A
:0708C0000302080302080017
:030000000208C72C
:0C08C700787FE4F6D8FD75811802090E58
:1008D300020800E493A3F8E493A34003F68001F233
:1008E30008DFF48029E493A3F85407240CC8C33326
:1008F300C4540F4420C8834004F456800146F6DFF5
:10090300E4800B0102040810204080900953E47E28
:10091300019360BCA3FF543F30E509541FFEE493E9
:10092300A360010ECF54C025E060A840B8E493A3B0
:10093300FAE493A3F8E493A3C8C582C8CAC583CADB
:10094300F0A3C8C582C8CAC583CADFE9DEE780BE93
:01095F000097
:00000001FF
